{"abi":[{"type":"constructor","inputs":[],"stateMutability":"nonpayable"},{"type":"function","name":"accessContract","inputs":[{"name":"tokenId","type":"uint256","internalType":"uint256"}],"outputs":[],"stateMutability":"payable"},{"type":"function","name":"approve","inputs":[{"name":"to","type":"address","internalType":"address"},{"name":"tokenId","type":"uint256","internalType":"uint256"}],"outputs":[],"stateMutability":"nonpayable"},{"type":"function","name":"balanceOf","inputs":[{"name":"owner","type":"address","internalType":"address"}],"outputs":[{"name":"","type":"uint256","internalType":"uint256"}],"stateMutability":"view"},{"type":"function","name":"contractDetails","inputs":[{"name":"","type":"uint256","internalType":"uint256"}],"outputs":[{"name":"creator","type":"address","internalType":"address"},{"name":"usageFee","type":"uint256","internalType":"uint256"}],"stateMutability":"view"},{"type":"function","name":"getApproved","inputs":[{"name":"tokenId","type":"uint256","internalType":"uint256"}],"outputs":[{"name":"","type":"address","internalType":"address"}],"stateMutability":"view"},{"type":"function","name":"getContractDetails","inputs":[{"name":"tokenId","type":"uint256","internalType":"uint256"}],"outputs":[{"name":"","type":"address","internalType":"address"},{"name":"","type":"string[]","internalType":"string[]"},{"name":"","type":"uint256","internalType":"uint256"}],"stateMutability":"view"},{"type":"function","name":"getTotalTokenIds","inputs":[],"outputs":[{"name":"","type":"uint256","internalType":"uint256"}],"stateMutability":"view"},{"type":"function","name":"hasAccess","inputs":[{"name":"","type":"uint256","internalType":"uint256"},{"name":"","type":"address","internalType":"address"}],"outputs":[{"name":"","type":"bool","internalType":"bool"}],"stateMutability":"view"},{"type":"function","name":"isApprovedForAll","inputs":[{"name":"owner","type":"address","internalType":"address"},{"name":"operator","type":"address","internalType":"address"}],"outputs":[{"name":"","type":"bool","internalType":"bool"}],"stateMutability":"view"},{"type":"function","name":"name","inputs":[],"outputs":[{"name":"","type":"string","internalType":"string"}],"stateMutability":"view"},{"type":"function","name":"owner","inputs":[],"outputs":[{"name":"","type":"address","internalType":"address"}],"stateMutability":"view"},{"type":"function","name":"ownerOf","inputs":[{"name":"tokenId","type":"uint256","internalType":"uint256"}],"outputs":[{"name":"","type":"address","internalType":"address"}],"stateMutability":"view"},{"type":"function","name":"renounceOwnership","inputs":[],"outputs":[],"stateMutability":"nonpayable"},{"type":"function","name":"safeTransferFrom","inputs":[{"name":"from","type":"address","internalType":"address"},{"name":"to","type":"address","internalType":"address"},{"name":"tokenId","type":"uint256","internalType":"uint256"}],"outputs":[],"stateMutability":"nonpayable"},{"type":"function","name":"safeTransferFrom","inputs":[{"name":"from","type":"address","internalType":"address"},{"name":"to","type":"address","internalType":"address"},{"name":"tokenId","type":"uint256","internalType":"uint256"},{"name":"data","type":"bytes","internalType":"bytes"}],"outputs":[],"stateMutability":"nonpayable"},{"type":"function","name":"setApprovalForAll","inputs":[{"name":"operator","type":"address","internalType":"address"},{"name":"approved","type":"bool","internalType":"bool"}],"outputs":[],"stateMutability":"nonpayable"},{"type":"function","name":"supportsInterface","inputs":[{"name":"interfaceId","type":"bytes4","internalType":"bytes4"}],"outputs":[{"name":"","type":"bool","internalType":"bool"}],"stateMutability":"view"},{"type":"function","name":"symbol","inputs":[],"outputs":[{"name":"","type":"string","internalType":"string"}],"stateMutability":"view"},{"type":"function","name":"tokenURI","inputs":[{"name":"tokenId","type":"uint256","internalType":"uint256"}],"outputs":[{"name":"","type":"string","internalType":"string"}],"stateMutability":"view"},{"type":"function","name":"transferFrom","inputs":[{"name":"from","type":"address","internalType":"address"},{"name":"to","type":"address","internalType":"address"},{"name":"tokenId","type":"uint256","internalType":"uint256"}],"outputs":[],"stateMutability":"nonpayable"},{"type":"function","name":"transferOwnership","inputs":[{"name":"newOwner","type":"address","internalType":"address"}],"outputs":[],"stateMutability":"nonpayable"},{"type":"function","name":"uploadContract","inputs":[{"name":"tokenURI","type":"string","internalType":"string"},{"name":"tags","type":"string[]","internalType":"string[]"},{"name":"usageFee","type":"uint256","internalType":"uint256"}],"outputs":[],"stateMutability":"nonpayable"},{"type":"function","name":"withdrawFunds","inputs":[],"outputs":[],"stateMutability":"nonpayable"},{"type":"event","name":"Approval","inputs":[{"name":"owner","type":"address","indexed":true,"internalType":"address"},{"name":"approved","type":"address","indexed":true,"internalType":"address"},{"name":"tokenId","type":"uint256","indexed":true,"internalType":"uint256"}],"anonymous":false},{"type":"event","name":"ApprovalForAll","inputs":[{"name":"owner","type":"address","indexed":true,"internalType":"address"},{"name":"operator","type":"address","indexed":true,"internalType":"address"},{"name":"approved","type":"bool","indexed":false,"internalType":"bool"}],"anonymous":false},{"type":"event","name":"BatchMetadataUpdate","inputs":[{"name":"_fromTokenId","type":"uint256","indexed":false,"internalType":"uint256"},{"name":"_toTokenId","type":"uint256","indexed":false,"internalType":"uint256"}],"anonymous":false},{"type":"event","name":"ContractAccessed","inputs":[{"name":"tokenId","type":"uint256","indexed":true,"internalType":"uint256"},{"name":"user","type":"address","indexed":true,"internalType":"address"}],"anonymous":false},{"type":"event","name":"ContractUploaded","inputs":[{"name":"tokenId","type":"uint256","indexed":true,"internalType":"uint256"},{"name":"creator","type":"address","indexed":true,"internalType":"address"},{"name":"usageFee","type":"uint256","indexed":false,"internalType":"uint256"}],"anonymous":false},{"type":"event","name":"MetadataUpdate","inputs":[{"name":"_tokenId","type":"uint256","indexed":false,"internalType":"uint256"}],"anonymous":false},{"type":"event","name":"OwnershipTransferred","inputs":[{"name":"previousOwner","type":"address","indexed":true,"internalType":"address"},{"name":"newOwner","type":"address","indexed":true,"internalType":"address"}],"anonymous":false},{"type":"event","name":"Transfer","inputs":[{"name":"from","type":"address","indexed":true,"internalType":"address"},{"name":"to","type":"address","indexed":true,"internalType":"address"},{"name":"tokenId","type":"uint256","indexed":true,"internalType":"uint256"}],"anonymous":false},{"type":"error","name":"ERC721IncorrectOwner","inputs":[{"name":"sender","type":"address","internalType":"address"},{"name":"tokenId","type":"uint256","internalType":"uint256"},{"name":"owner","type":"address","internalType":"address"}]},{"type":"error","name":"ERC721InsufficientApproval","inputs":[{"name":"operator","type":"address","internalType":"address"},{"name":"tokenId","type":"uint256","internalType":"uint256"}]},{"type":"error","name":"ERC721InvalidApprover","inputs":[{"name":"approver","type":"address","internalType":"address"}]},{"type":"error","name":"ERC721InvalidOperator","inputs":[{"name":"operator","type":"address","internalType":"address"}]},{"type":"error","name":"ERC721InvalidOwner","inputs":[{"name":"owner","type":"address","internalType":"address"}]},{"type":"error","name":"ERC721InvalidReceiver","inputs":[{"name":"receiver","type":"address","internalType":"address"}]},{"type":"error","name":"ERC721InvalidSender","inputs":[{"name":"sender","type":"address","internalType":"address"}]},{"type":"error","name":"ERC721NonexistentToken","inputs":[{"name":"tokenId","type":"uint256","internalType":"uint256"}]},{"type":"error","name":"OwnableInvalidOwner","inputs":[{"name":"owner","type":"address","internalType":"address"}]},{"type":"error","name":"OwnableUnauthorizedAccount","inputs":[{"name":"account","type":"address","internalType":"address"}]}],"bytecode":{"object":"0x608060405234801561000f575f5ffd5b50336040518060400160405280601081526020017f536d617274436f6e74726163744e4654000000000000000000000000000000008152506040518060400160405280600581526020017f53434e4654000000000000000000000000000000000000000000000000000000815250815f908161008b9190610423565b50806001908161009b9190610423565b5050505f73ffffffffffffffffffffffffffffffffffffffff168173ffffffffffffffffffffffffffffffffffffffff160361010e575f6040517f1e4fbdf70000000000000000000000000000000000000000000000000000000081526004016101059190610531565b60405180910390fd5b61011d8161012360201b60201c565b5061054a565b5f60075f9054906101000a900473ffffffffffffffffffffffffffffffffffffffff1690508160075f6101000a81548173ffffffffffffffffffffffffffffffffffffffff021916908373ffffffffffffffffffffffffffffffffffffffff1602179055508173ffffffffffffffffffffffffffffffffffffffff168173ffffffffffffffffffffffffffffffffffffffff167f8be0079c531659141344cd1fd0a4f28419497f9722a3daafe3b4186f6b6457e060405160405180910390a35050565b5f81519050919050565b7f4e487b71000000000000000000000000000000000000000000000000000000005f52604160045260245ffd5b7f4e487b71000000000000000000000000000000000000000000000000000000005f52602260045260245ffd5b5f600282049050600182168061026157607f821691505b6020821081036102745761027361021d565b5b50919050565b5f819050815f5260205f209050919050565b5f6020601f8301049050919050565b5f82821b905092915050565b5f600883026102d67fffffffffffffffffffffffffffffffffffffffffffffffffffffffffffffffff8261029b565b6102e0868361029b565b95508019841693508086168417925050509392505050565b5f819050919050565b5f819050919050565b5f61032461031f61031a846102f8565b610301565b6102f8565b9050919050565b5f819050919050565b61033d8361030a565b6103516103498261032b565b8484546102a7565b825550505050565b5f5f905090565b610368610359565b610373818484610334565b505050565b5b818110156103965761038b5f82610360565b600181019050610379565b5050565b601f8211156103db576103ac8161027a565b6103b58461028c565b810160208510156103c4578190505b6103d86103d08561028c565b830182610378565b50505b505050565b5f82821c905092915050565b5f6103fb5f19846008026103e0565b1980831691505092915050565b5f61041383836103ec565b9150826002028217905092915050565b61042c826101e6565b67ffffffffffffffff811115610445576104446101f0565b5b61044f825461024a565b61045a82828561039a565b5f60209050601f83116001811461048b575f8415610479578287015190505b6104838582610408565b8655506104ea565b601f1984166104998661027a565b5f5b828110156104c05784890151825560018201915060208501945060208101905061049b565b868310156104dd57848901516104d9601f8916826103ec565b8355505b6001600288020188555050505b505050505050565b5f73ffffffffffffffffffffffffffffffffffffffff82169050919050565b5f61051b826104f2565b9050919050565b61052b81610511565b82525050565b5f6020820190506105445f830184610522565b92915050565b61301b806105575f395ff3fe60806040526004361061013f575f3560e01c8063616351b1116100b5578063a22cb4651161006e578063a22cb4651461043e578063b88d4fde14610466578063c87b56dd1461048e578063ced14198146104ca578063e985e9c514610506578063f2fde38b146105425761013f565b8063616351b1146103325780636352211e1461035c57806370a0823114610398578063715018a6146103d45780638da5cb5b146103ea57806395d89b41146104145761013f565b806323b872dd1161010757806323b872dd1461022957806324600fc3146102515780633330a55f1461026757806342842e0e146102a45780634d6d6a9c146102cc578063524c6a8a1461030a5761013f565b806301ffc9a71461014357806306fdde031461017f578063081812fc146101a9578063095ea7b3146101e55780631b58168e1461020d575b5f5ffd5b34801561014e575f5ffd5b506101696004803603810190610164919061218e565b61056a565b60405161017691906121d3565b60405180910390f35b34801561018a575f5ffd5b506101936105ca565b6040516101a0919061225c565b60405180910390f35b3480156101b4575f5ffd5b506101cf60048036038101906101ca91906122af565b610659565b6040516101dc9190612319565b60405180910390f35b3480156101f0575f5ffd5b5061020b6004803603810190610206919061235c565b610674565b005b610227600480360381019061022291906122af565b61068a565b005b348015610234575f5ffd5b5061024f600480360381019061024a919061239a565b610807565b005b34801561025c575f5ffd5b50610265610906565b005b348015610272575f5ffd5b5061028d600480360381019061028891906122af565b61099a565b60405161029b9291906123f9565b60405180910390f35b3480156102af575f5ffd5b506102ca60048036038101906102c5919061239a565b6109d9565b005b3480156102d7575f5ffd5b506102f260048036038101906102ed91906122af565b6109f8565b60405161030193929190612523565b60405180910390f35b348015610315575f5ffd5b50610330600480360381019061032b919061276d565b610b18565b005b34801561033d575f5ffd5b50610346610c4e565b60405161035391906127f5565b60405180910390f35b348015610367575f5ffd5b50610382600480360381019061037d91906122af565b610c57565b60405161038f9190612319565b60405180910390f35b3480156103a3575f5ffd5b506103be60048036038101906103b9919061280e565b610c68565b6040516103cb91906127f5565b60405180910390f35b3480156103df575f5ffd5b506103e8610d1e565b005b3480156103f5575f5ffd5b506103fe610d31565b60405161040b9190612319565b60405180910390f35b34801561041f575f5ffd5b50610428610d59565b604051610435919061225c565b60405180910390f35b348015610449575f5ffd5b50610464600480360381019061045f9190612863565b610de9565b005b348015610471575f5ffd5b5061048c6004803603810190610487919061293f565b610dff565b005b348015610499575f5ffd5b506104b460048036038101906104af91906122af565b610e24565b6040516104c1919061225c565b60405180910390f35b3480156104d5575f5ffd5b506104f060048036038101906104eb91906129bf565b610f2f565b6040516104fd91906121d3565b60405180910390f35b348015610511575f5ffd5b5061052c600480360381019061052791906129fd565b610f59565b60405161053991906121d3565b60405180910390f35b34801561054d575f5ffd5b506105686004803603810190610563919061280e565b610fe7565b005b5f634906490660e01b7bffffffffffffffffffffffffffffffffffffffffffffffffffffffff1916827bffffffffffffffffffffffffffffffffffffffffffffffffffffffff191614806105c357506105c28261106b565b5b9050919050565b60605f80546105d890612a68565b80601f016020809104026020016040519081016040528092919081815260200182805461060490612a68565b801561064f5780601f106106265761010080835404028352916020019161064f565b820191905f5260205f20905b81548152906001019060200180831161063257829003601f168201915b5050505050905090565b5f6106638261114c565b5061066d826111d2565b9050919050565b610686828261068161120b565b611212565b5050565b60095f8281526020019081526020015f20600201543410156106e1576040517f08c379a00000000000000000000000000000000000000000000000000000000081526004016106d890612ae2565b60405180910390fd5b5f60095f8381526020019081526020015f205f015f9054906101000a900473ffffffffffffffffffffffffffffffffffffffff1690508073ffffffffffffffffffffffffffffffffffffffff166108fc3490811502906040515f60405180830381858888f1935050505015801561075a573d5f5f3e3d5ffd5b506001600a5f8481526020019081526020015f205f3373ffffffffffffffffffffffffffffffffffffffff1673ffffffffffffffffffffffffffffffffffffffff1681526020019081526020015f205f6101000a81548160ff0219169083151502179055503373ffffffffffffffffffffffffffffffffffffffff16827f01e2d6104319c1aedba34035b81beaad199e43eb985fa1e03e9391f4aca5ad2360405160405180910390a35050565b5f73ffffffffffffffffffffffffffffffffffffffff168273ffffffffffffffffffffffffffffffffffffffff1603610877575f6040517f64a0ae9200000000000000000000000000000000000000000000000000000000815260040161086e9190612319565b60405180910390fd5b5f61088a838361088561120b565b611224565b90508373ffffffffffffffffffffffffffffffffffffffff168173ffffffffffffffffffffffffffffffffffffffff1614610900578382826040517f64283d7b0000000000000000000000000000000000000000000000000000000081526004016108f793929190612b00565b60405180910390fd5b50505050565b5f4790505f811161094c576040517f08c379a000000000000000000000000000000000000000000000000000000000815260040161094390612b7f565b60405180910390fd5b610954610d31565b73ffffffffffffffffffffffffffffffffffffffff166108fc8290811502906040515f60405180830381858888f19350505050158015610996573d5f5f3e3d5ffd5b5050565b6009602052805f5260405f205f91509050805f015f9054906101000a900473ffffffffffffffffffffffffffffffffffffffff16908060020154905082565b6109f383838360405180602001604052805f815250610dff565b505050565b5f60605f5f60095f8681526020019081526020015f209050805f015f9054906101000a900473ffffffffffffffffffffffffffffffffffffffff1681600101826002015481805480602002602001604051908101604052809291908181526020015f905b82821015610b04578382905f5260205f20018054610a7990612a68565b80601f0160208091040260200160405190810160405280929190818152602001828054610aa590612a68565b8015610af05780601f10610ac757610100808354040283529160200191610af0565b820191905f5260205f20905b815481529060010190602001808311610ad357829003601f168201915b505050505081526020019060010190610a5c565b505050509150935093509350509193909250565b60085f815480929190610b2a90612bca565b91905055505f6008549050610b3f338261142f565b610b498185611522565b60405180606001604052803373ffffffffffffffffffffffffffffffffffffffff1681526020018481526020018381525060095f8381526020019081526020015f205f820151815f015f6101000a81548173ffffffffffffffffffffffffffffffffffffffff021916908373ffffffffffffffffffffffffffffffffffffffff1602179055506020820151816001019080519060200190610beb929190612056565b50604082015181600201559050503373ffffffffffffffffffffffffffffffffffffffff16817f9d9c80d83c50f3a9f19ecf3dd938efa7c6db4e668c66f6c379e79c6e4bcb814584604051610c4091906127f5565b60405180910390a350505050565b5f600854905090565b5f610c618261114c565b9050919050565b5f5f73ffffffffffffffffffffffffffffffffffffffff168273ffffffffffffffffffffffffffffffffffffffff1603610cd9575f6040517f89c62b64000000000000000000000000000000000000000000000000000000008152600401610cd09190612319565b60405180910390fd5b60035f8373ffffffffffffffffffffffffffffffffffffffff1673ffffffffffffffffffffffffffffffffffffffff1681526020019081526020015f20549050919050565b610d2661157c565b610d2f5f611603565b565b5f60075f9054906101000a900473ffffffffffffffffffffffffffffffffffffffff16905090565b606060018054610d6890612a68565b80601f0160208091040260200160405190810160405280929190818152602001828054610d9490612a68565b8015610ddf5780601f10610db657610100808354040283529160200191610ddf565b820191905f5260205f20905b815481529060010190602001808311610dc257829003601f168201915b5050505050905090565b610dfb610df461120b565b83836116c6565b5050565b610e0a848484610807565b610e1e610e1561120b565b8585858561182f565b50505050565b6060610e2f8261114c565b505f60065f8481526020019081526020015f208054610e4d90612a68565b80601f0160208091040260200160405190810160405280929190818152602001828054610e7990612a68565b8015610ec45780601f10610e9b57610100808354040283529160200191610ec4565b820191905f5260205f20905b815481529060010190602001808311610ea757829003601f168201915b505050505090505f610ed46119db565b90505f815103610ee8578192505050610f2a565b5f82511115610f1c578082604051602001610f04929190612c4b565b60405160208183030381529060405292505050610f2a565b610f25846119f1565b925050505b919050565b600a602052815f5260405f20602052805f5260405f205f915091509054906101000a900460ff1681565b5f60055f8473ffffffffffffffffffffffffffffffffffffffff1673ffffffffffffffffffffffffffffffffffffffff1681526020019081526020015f205f8373ffffffffffffffffffffffffffffffffffffffff1673ffffffffffffffffffffffffffffffffffffffff1681526020019081526020015f205f9054906101000a900460ff16905092915050565b610fef61157c565b5f73ffffffffffffffffffffffffffffffffffffffff168173ffffffffffffffffffffffffffffffffffffffff160361105f575f6040517f1e4fbdf70000000000000000000000000000000000000000000000000000000081526004016110569190612319565b60405180910390fd5b61106881611603565b50565b5f7f80ac58cd000000000000000000000000000000000000000000000000000000007bffffffffffffffffffffffffffffffffffffffffffffffffffffffff1916827bffffffffffffffffffffffffffffffffffffffffffffffffffffffff1916148061113557507f5b5e139f000000000000000000000000000000000000000000000000000000007bffffffffffffffffffffffffffffffffffffffffffffffffffffffff1916827bffffffffffffffffffffffffffffffffffffffffffffffffffffffff1916145b80611145575061114482611a57565b5b9050919050565b5f5f61115783611ac0565b90505f73ffffffffffffffffffffffffffffffffffffffff168173ffffffffffffffffffffffffffffffffffffffff16036111c957826040517f7e2732890000000000000000000000000000000000000000000000000000000081526004016111c091906127f5565b60405180910390fd5b80915050919050565b5f60045f8381526020019081526020015f205f9054906101000a900473ffffffffffffffffffffffffffffffffffffffff169050919050565b5f33905090565b61121f8383836001611af9565b505050565b5f5f61122f84611ac0565b90505f73ffffffffffffffffffffffffffffffffffffffff168373ffffffffffffffffffffffffffffffffffffffff16146112705761126f818486611cb8565b5b5f73ffffffffffffffffffffffffffffffffffffffff168173ffffffffffffffffffffffffffffffffffffffff16146112fb576112af5f855f5f611af9565b600160035f8373ffffffffffffffffffffffffffffffffffffffff1673ffffffffffffffffffffffffffffffffffffffff1681526020019081526020015f205f82825403925050819055505b5f73ffffffffffffffffffffffffffffffffffffffff168573ffffffffffffffffffffffffffffffffffffffff161461137a57600160035f8773ffffffffffffffffffffffffffffffffffffffff1673ffffffffffffffffffffffffffffffffffffffff1681526020019081526020015f205f82825401925050819055505b8460025f8681526020019081526020015f205f6101000a81548173ffffffffffffffffffffffffffffffffffffffff021916908373ffffffffffffffffffffffffffffffffffffffff160217905550838573ffffffffffffffffffffffffffffffffffffffff168273ffffffffffffffffffffffffffffffffffffffff167fddf252ad1be2c89b69c2b068fc378daa952ba7f163c4a11628f55a4df523b3ef60405160405180910390a4809150509392505050565b5f73ffffffffffffffffffffffffffffffffffffffff168273ffffffffffffffffffffffffffffffffffffffff160361149f575f6040517f64a0ae920000000000000000000000000000000000000000000000000000000081526004016114969190612319565b60405180910390fd5b5f6114ab83835f611224565b90505f73ffffffffffffffffffffffffffffffffffffffff168173ffffffffffffffffffffffffffffffffffffffff161461151d575f6040517f73c6ac6e0000000000000000000000000000000000000000000000000000000081526004016115149190612319565b60405180910390fd5b505050565b8060065f8481526020019081526020015f2090816115409190612e0e565b507ff8e1a15aba9398e019f0b49df1a4fde98ee17ae345cb5f6b5e2c27f5033e8ce78260405161157091906127f5565b60405180910390a15050565b61158461120b565b73ffffffffffffffffffffffffffffffffffffffff166115a2610d31565b73ffffffffffffffffffffffffffffffffffffffff1614611601576115c561120b565b6040517f118cdaa70000000000000000000000000000000000000000000000000000000081526004016115f89190612319565b60405180910390fd5b565b5f60075f9054906101000a900473ffffffffffffffffffffffffffffffffffffffff1690508160075f6101000a81548173ffffffffffffffffffffffffffffffffffffffff021916908373ffffffffffffffffffffffffffffffffffffffff1602179055508173ffffffffffffffffffffffffffffffffffffffff168173ffffffffffffffffffffffffffffffffffffffff167f8be0079c531659141344cd1fd0a4f28419497f9722a3daafe3b4186f6b6457e060405160405180910390a35050565b5f73ffffffffffffffffffffffffffffffffffffffff168273ffffffffffffffffffffffffffffffffffffffff160361173657816040517f5b08ba1800000000000000000000000000000000000000000000000000000000815260040161172d9190612319565b60405180910390fd5b8060055f8573ffffffffffffffffffffffffffffffffffffffff1673ffffffffffffffffffffffffffffffffffffffff1681526020019081526020015f205f8473ffffffffffffffffffffffffffffffffffffffff1673ffffffffffffffffffffffffffffffffffffffff1681526020019081526020015f205f6101000a81548160ff0219169083151502179055508173ffffffffffffffffffffffffffffffffffffffff168373ffffffffffffffffffffffffffffffffffffffff167f17307eab39ab6107e8899845ad3d59bd9653f200f220920489ca2b5937696c318360405161182291906121d3565b60405180910390a3505050565b5f8373ffffffffffffffffffffffffffffffffffffffff163b11156119d4578273ffffffffffffffffffffffffffffffffffffffff1663150b7a02868685856040518563ffffffff1660e01b815260040161188d9493929190612f2f565b6020604051808303815f875af19250505080156118c857506040513d601f19601f820116820180604052508101906118c59190612f8d565b60015b611949573d805f81146118f6576040519150601f19603f3d011682016040523d82523d5f602084013e6118fb565b606091505b505f81510361194157836040517f64a0ae920000000000000000000000000000000000000000000000000000000081526004016119389190612319565b60405180910390fd5b805181602001fd5b63150b7a0260e01b7bffffffffffffffffffffffffffffffffffffffffffffffffffffffff1916817bffffffffffffffffffffffffffffffffffffffffffffffffffffffff1916146119d257836040517f64a0ae920000000000000000000000000000000000000000000000000000000081526004016119c99190612319565b60405180910390fd5b505b5050505050565b606060405180602001604052805f815250905090565b60606119fc8261114c565b505f611a066119db565b90505f815111611a245760405180602001604052805f815250611a4f565b80611a2e84611d7b565b604051602001611a3f929190612c4b565b6040516020818303038152906040525b915050919050565b5f7f01ffc9a7000000000000000000000000000000000000000000000000000000007bffffffffffffffffffffffffffffffffffffffffffffffffffffffff1916827bffffffffffffffffffffffffffffffffffffffffffffffffffffffff1916149050919050565b5f60025f8381526020019081526020015f205f9054906101000a900473ffffffffffffffffffffffffffffffffffffffff169050919050565b8080611b3157505f73ffffffffffffffffffffffffffffffffffffffff168273ffffffffffffffffffffffffffffffffffffffff1614155b15611c63575f611b408461114c565b90505f73ffffffffffffffffffffffffffffffffffffffff168373ffffffffffffffffffffffffffffffffffffffff1614158015611baa57508273ffffffffffffffffffffffffffffffffffffffff168173ffffffffffffffffffffffffffffffffffffffff1614155b8015611bbd5750611bbb8184610f59565b155b15611bff57826040517fa9fbf51f000000000000000000000000000000000000000000000000000000008152600401611bf69190612319565b60405180910390fd5b8115611c6157838573ffffffffffffffffffffffffffffffffffffffff168273ffffffffffffffffffffffffffffffffffffffff167f8c5be1e5ebec7d5bd14f71427d1e84f3dd0314c0f7b2291e5b200ac8c7c3b92560405160405180910390a45b505b8360045f8581526020019081526020015f205f6101000a81548173ffffffffffffffffffffffffffffffffffffffff021916908373ffffffffffffffffffffffffffffffffffffffff16021790555050505050565b611cc3838383611e45565b611d76575f73ffffffffffffffffffffffffffffffffffffffff168373ffffffffffffffffffffffffffffffffffffffff1603611d3757806040517f7e273289000000000000000000000000000000000000000000000000000000008152600401611d2e91906127f5565b60405180910390fd5b81816040517f177e802f000000000000000000000000000000000000000000000000000000008152600401611d6d9291906123f9565b60405180910390fd5b505050565b60605f6001611d8984611f05565b0190505f8167ffffffffffffffff811115611da757611da6612567565b5b6040519080825280601f01601f191660200182016040528015611dd95781602001600182028036833780820191505090505b5090505f82602001820190505b600115611e3a578080600190039150507f3031323334353637383961626364656600000000000000000000000000000000600a86061a8153600a8581611e2f57611e2e612fb8565b5b0494505f8503611de6575b819350505050919050565b5f5f73ffffffffffffffffffffffffffffffffffffffff168373ffffffffffffffffffffffffffffffffffffffff1614158015611efc57508273ffffffffffffffffffffffffffffffffffffffff168473ffffffffffffffffffffffffffffffffffffffff161480611ebd5750611ebc8484610f59565b5b80611efb57508273ffffffffffffffffffffffffffffffffffffffff16611ee3836111d2565b73ffffffffffffffffffffffffffffffffffffffff16145b5b90509392505050565b5f5f5f90507a184f03e93ff9f4daa797ed6e38ed64bf6a1f0100000000000000008310611f61577a184f03e93ff9f4daa797ed6e38ed64bf6a1f0100000000000000008381611f5757611f56612fb8565b5b0492506040810190505b6d04ee2d6d415b85acef81000000008310611f9e576d04ee2d6d415b85acef81000000008381611f9457611f93612fb8565b5b0492506020810190505b662386f26fc100008310611fcd57662386f26fc100008381611fc357611fc2612fb8565b5b0492506010810190505b6305f5e1008310611ff6576305f5e1008381611fec57611feb612fb8565b5b0492506008810190505b612710831061201b57612710838161201157612010612fb8565b5b0492506004810190505b6064831061203e576064838161203457612033612fb8565b5b0492506002810190505b600a831061204d576001810190505b80915050919050565b828054828255905f5260205f2090810192821561209c579160200282015b8281111561209b57825182908161208b9190612e0e565b5091602001919060010190612074565b5b5090506120a991906120ad565b5090565b5b808211156120cc575f81816120c391906120d0565b506001016120ae565b5090565b5080546120dc90612a68565b5f825580601f106120ed575061210a565b601f0160209004905f5260205f2090810190612109919061210d565b5b50565b5b80821115612124575f815f90555060010161210e565b5090565b5f604051905090565b5f5ffd5b5f5ffd5b5f7fffffffff0000000000000000000000000000000000000000000000000000000082169050919050565b61216d81612139565b8114612177575f5ffd5b50565b5f8135905061218881612164565b92915050565b5f602082840312156121a3576121a2612131565b5b5f6121b08482850161217a565b91505092915050565b5f8115159050919050565b6121cd816121b9565b82525050565b5f6020820190506121e65f8301846121c4565b92915050565b5f81519050919050565b5f82825260208201905092915050565b8281835e5f83830152505050565b5f601f19601f8301169050919050565b5f61222e826121ec565b61223881856121f6565b9350612248818560208601612206565b61225181612214565b840191505092915050565b5f6020820190508181035f8301526122748184612224565b905092915050565b5f819050919050565b61228e8161227c565b8114612298575f5ffd5b50565b5f813590506122a981612285565b92915050565b5f602082840312156122c4576122c3612131565b5b5f6122d18482850161229b565b91505092915050565b5f73ffffffffffffffffffffffffffffffffffffffff82169050919050565b5f612303826122da565b9050919050565b612313816122f9565b82525050565b5f60208201905061232c5f83018461230a565b92915050565b61233b816122f9565b8114612345575f5ffd5b50565b5f8135905061235681612332565b92915050565b5f5f6040838503121561237257612371612131565b5b5f61237f85828601612348565b92505060206123908582860161229b565b9150509250929050565b5f5f5f606084860312156123b1576123b0612131565b5b5f6123be86828701612348565b93505060206123cf86828701612348565b92505060406123e08682870161229b565b9150509250925092565b6123f38161227c565b82525050565b5f60408201905061240c5f83018561230a565b61241960208301846123ea565b9392505050565b5f81519050919050565b5f82825260208201905092915050565b5f819050602082019050919050565b5f82825260208201905092915050565b5f612463826121ec565b61246d8185612449565b935061247d818560208601612206565b61248681612214565b840191505092915050565b5f61249c8383612459565b905092915050565b5f602082019050919050565b5f6124ba82612420565b6124c4818561242a565b9350836020820285016124d68561243a565b805f5b8581101561251157848403895281516124f28582612491565b94506124fd836124a4565b925060208a019950506001810190506124d9565b50829750879550505050505092915050565b5f6060820190506125365f83018661230a565b818103602083015261254881856124b0565b905061255760408301846123ea565b949350505050565b5f5ffd5b5f5ffd5b7f4e487b71000000000000000000000000000000000000000000000000000000005f52604160045260245ffd5b61259d82612214565b810181811067ffffffffffffffff821117156125bc576125bb612567565b5b80604052505050565b5f6125ce612128565b90506125da8282612594565b919050565b5f67ffffffffffffffff8211156125f9576125f8612567565b5b61260282612214565b9050602081019050919050565b828183375f83830152505050565b5f61262f61262a846125df565b6125c5565b90508281526020810184848401111561264b5761264a612563565b5b61265684828561260f565b509392505050565b5f82601f8301126126725761267161255f565b5b813561268284826020860161261d565b91505092915050565b5f67ffffffffffffffff8211156126a5576126a4612567565b5b602082029050602081019050919050565b5f5ffd5b5f6126cc6126c78461268b565b6125c5565b905080838252602082019050602084028301858111156126ef576126ee6126b6565b5b835b8181101561273657803567ffffffffffffffff8111156127145761271361255f565b5b808601612721898261265e565b855260208501945050506020810190506126f1565b5050509392505050565b5f82601f8301126127545761275361255f565b5b81356127648482602086016126ba565b91505092915050565b5f5f5f6060848603121561278457612783612131565b5b5f84013567ffffffffffffffff8111156127a1576127a0612135565b5b6127ad8682870161265e565b935050602084013567ffffffffffffffff8111156127ce576127cd612135565b5b6127da86828701612740565b92505060406127eb8682870161229b565b9150509250925092565b5f6020820190506128085f8301846123ea565b92915050565b5f6020828403121561282357612822612131565b5b5f61283084828501612348565b91505092915050565b612842816121b9565b811461284c575f5ffd5b50565b5f8135905061285d81612839565b92915050565b5f5f6040838503121561287957612878612131565b5b5f61288685828601612348565b92505060206128978582860161284f565b9150509250929050565b5f67ffffffffffffffff8211156128bb576128ba612567565b5b6128c482612214565b9050602081019050919050565b5f6128e36128de846128a1565b6125c5565b9050828152602081018484840111156128ff576128fe612563565b5b61290a84828561260f565b509392505050565b5f82601f8301126129265761292561255f565b5b81356129368482602086016128d1565b91505092915050565b5f5f5f5f6080858703121561295757612956612131565b5b5f61296487828801612348565b945050602061297587828801612348565b93505060406129868782880161229b565b925050606085013567ffffffffffffffff8111156129a7576129a6612135565b5b6129b387828801612912565b91505092959194509250565b5f5f604083850312156129d5576129d4612131565b5b5f6129e28582860161229b565b92505060206129f385828601612348565b9150509250929050565b5f5f60408385031215612a1357612a12612131565b5b5f612a2085828601612348565b9250506020612a3185828601612348565b9150509250929050565b7f4e487b71000000000000000000000000000000000000000000000000000000005f52602260045260245ffd5b5f6002820490506001821680612a7f57607f821691505b602082108103612a9257612a91612a3b565b5b50919050565b7f496e73756666696369656e7420666565000000000000000000000000000000005f82015250565b5f612acc6010836121f6565b9150612ad782612a98565b602082019050919050565b5f6020820190508181035f830152612af981612ac0565b9050919050565b5f606082019050612b135f83018661230a565b612b2060208301856123ea565b612b2d604083018461230a565b949350505050565b7f4e6f2066756e647320617661696c61626c6500000000000000000000000000005f82015250565b5f612b696012836121f6565b9150612b7482612b35565b602082019050919050565b5f6020820190508181035f830152612b9681612b5d565b9050919050565b7f4e487b71000000000000000000000000000000000000000000000000000000005f52601160045260245ffd5b5f612bd48261227c565b91507fffffffffffffffffffffffffffffffffffffffffffffffffffffffffffffffff8203612c0657612c05612b9d565b5b600182019050919050565b5f81905092915050565b5f612c25826121ec565b612c2f8185612c11565b9350612c3f818560208601612206565b80840191505092915050565b5f612c568285612c1b565b9150612c628284612c1b565b91508190509392505050565b5f819050815f5260205f209050919050565b5f6020601f8301049050919050565b5f82821b905092915050565b5f60088302612cca7fffffffffffffffffffffffffffffffffffffffffffffffffffffffffffffffff82612c8f565b612cd48683612c8f565b95508019841693508086168417925050509392505050565b5f819050919050565b5f612d0f612d0a612d058461227c565b612cec565b61227c565b9050919050565b5f819050919050565b612d2883612cf5565b612d3c612d3482612d16565b848454612c9b565b825550505050565b5f5f905090565b612d53612d44565b612d5e818484612d1f565b505050565b5b81811015612d8157612d765f82612d4b565b600181019050612d64565b5050565b601f821115612dc657612d9781612c6e565b612da084612c80565b81016020851015612daf578190505b612dc3612dbb85612c80565b830182612d63565b50505b505050565b5f82821c905092915050565b5f612de65f1984600802612dcb565b1980831691505092915050565b5f612dfe8383612dd7565b9150826002028217905092915050565b612e17826121ec565b67ffffffffffffffff811115612e3057612e2f612567565b5b612e3a8254612a68565b612e45828285612d85565b5f60209050601f831160018114612e76575f8415612e64578287015190505b612e6e8582612df3565b865550612ed5565b601f198416612e8486612c6e565b5f5b82811015612eab57848901518255600182019150602085019450602081019050612e86565b86831015612ec85784890151612ec4601f891682612dd7565b8355505b6001600288020188555050505b505050505050565b5f81519050919050565b5f82825260208201905092915050565b5f612f0182612edd565b612f0b8185612ee7565b9350612f1b818560208601612206565b612f2481612214565b840191505092915050565b5f608082019050612f425f83018761230a565b612f4f602083018661230a565b612f5c60408301856123ea565b8181036060830152612f6e8184612ef7565b905095945050505050565b5f81519050612f8781612164565b92915050565b5f60208284031215612fa257612fa1612131565b5b5f612faf84828501612f79565b91505092915050565b7f4e487b71000000000000000000000000000000000000000000000000000000005f52601260045260245ffdfea26469706673582212204cb964b80ef41b535d69cfc1ea4c0aa28b216d581e8dcb605a98ae475fc4564664736f6c634300081c0033","linkReferences":{}},"methodIdentifiers":{"accessContract(uint256)":"1b58168e","approve(address,uint256)":"095ea7b3","balanceOf(address)":"70a08231","contractDetails(uint256)":"3330a55f","getApproved(uint256)":"081812fc","getContractDetails(uint256)":"4d6d6a9c","getTotalTokenIds()":"616351b1","hasAccess(uint256,address)":"ced14198","isApprovedForAll(address,address)":"e985e9c5","name()":"06fdde03","owner()":"8da5cb5b","ownerOf(uint256)":"6352211e","renounceOwnership()":"715018a6","safeTransferFrom(address,address,uint256)":"42842e0e","safeTransferFrom(address,address,uint256,bytes)":"b88d4fde","setApprovalForAll(address,bool)":"a22cb465","supportsInterface(bytes4)":"01ffc9a7","symbol()":"95d89b41","tokenURI(uint256)":"c87b56dd","transferFrom(address,address,uint256)":"23b872dd","transferOwnership(address)":"f2fde38b","uploadContract(string,string[],uint256)":"524c6a8a","withdrawFunds()":"24600fc3"},"id":19}